:020000040800F2
:10000000B84200206D020008DD39000845320008C2
:10001000D93900083D060008A5430008000000008B
:10002000000000000000000000000000D53A0008B9
:10003000E907000800000000E1390008D93A00088B
:1000400089020008890200088902000800000000F7
:1000500089020008890200088902000800000000E7
:1000600089020008890200080000000089020008D7
:100070008902000889020008890200088902000834
:100080008902000889020008890200088902000824
:100090008902000889020008890200088902000814
:1000A0008902000889020008890200088902000804
:1000B00089020008890200088902000889020008F4
:1000C00089020008890200088902000889020008E4
:1000D0000000000089020008890200088902000867
:1000E00089020008890200088902000889020008C4
:1000F0008902000889020008890200080000000047
:100100000000000089020008890200088902000836
:100110008902000889020008890200088902000893
:100120008902000889020008890200088902000883
:100130008902000800000000000000008902000899
:10014000890200080000000000000000000000001C
:10015000000000000000000089020008000000000C
:100160000000000000000000890200088902000869
:10017000000000000000000000000000000000007F
:10018000000000000000000000000000000000006F
:10019000000000000000000000000000000000005F
:1001A0000000000000000000890200088902000829
:1001B00089020008890200088902000889020008F3
:1001C0008902000889020008000000000000000009
:1001D000000000000000000000000000890200088C
:1001E000890200080000000000000000000000007C
:1001F00000000000000000000000000000000000FF
:1002000000000000890200088902000800000000C8
:10021000000000008902000800000000000000004B
:10022000000000000000000000000000890200083B
:10023000890200080000000000000000000000002B
:10024000000000000000000000000000890200081B
:100250008902000889020008DFF80CD000F092F84B
:1002600000480047FD4C0008B8420020074880477E
:1002700007480047FEE7FEE7FEE7FEE7FEE7FEE78A
:10028000FEE7FEE7FEE7FEE7FEE70000A53B00080D
:10029000590200082DE9F05F0546002092469B4672
:1002A00088460646814640241BE02846414647468C
:1002B000224600F057F853465A46C01A914110D3CF
:1002C00011461846224600F03EF82D1A67EB010849
:1002D0004F4622460120002100F035F817EB0009B7
:1002E0004E41201EA4F10104DFDC484631462A4677
:1002F0004346BDE8F09FD2B201E000F8012B491E51
:10030000FBD270470022F6E710B513460A460446B2
:100310001946FFF7F0FF204610BD30B50B460146E9
:1003200000202022012409E021FA02F59D4205D394
:1003300003FA02F5491B04FA02F52844151EA2F13E
:100340000102F1DC30BD202A04DB203A00FA02F180
:10035000002070479140C2F1200320FA03F31943B3
:1003600090407047202A04DB203A21FA02F0002155
:10037000704721FA02F3D040C2F1200291400843B5
:1003800019467047064C074D06E0E06840F001034F
:1003900094E8070098471034AC42F6D3FFF760FFAB
:1003A0006851000888510008012884BF6FF00100DF
:1003B00070472DE9F043A7B040F20C01C2F20001F2
:1003C000942251F8201040F21C2300FB02F7C2F2E5
:1003D00000036D4610FB0238D95105F10800802159
:1003E000FFF790FF0120002700902846019701F0B9
:1003F0002FFC40F68C40C4F202408169002541F494
:10040000804181618169C4F2022501F48041229119
:100410002299016822AE41F00101016000684FF0AD
:10042000020900F00100229022984FF400702290FF
:10043000072428463146CDE923972597269400F0D6
:100440006BFA4FF48060CDE9220928463146CDE9A8
:100450002477269400F060FA404603F08FFA0028D3
:1004600018BF6FF0030027B0BDE8F08300F028BB91
:10047000B0B540F25005C2F20005286810B101384D
:10048000286001D00020B0BD40F69C40C4F202407C
:10049000016840F2004421F40011C4F2022401601A
:1004A0002046402100F0BAF92046802100F0B6F93C
:1004B000281D00F055FB002818BF6FF00700B0BDE5
:1004C0002DE9F04FA9B040F25000C2F2000045F211
:1004D00000410268C4F200014160511C01602AB170
:1004E0000025284629B0BDE8F08F00BF041D204636
:1004F00000F054FB00284FF00005F2D102AE06F1E7
:10050000080080214FF08009FFF7FCFE4FF40050F7
:1005100002903046039501F09BFB40F68C46C4F2F6
:100520000246306840F2004840F002003060306817
:10053000C4F2022800F0020024902498402024AF46
:1005400024904FF0120A4FF0040B40463946CDE993
:1005500025A52795CDF8A0B000F0DEF94046394634
:10056000CDE9249ACDE92655CDF8A0B000F0D4F914
:10057000306940F400103061306900F400100190DF
:100580000198204603F0C0F830B16FF00705284607
:1005900029B0BDE8F08F00BF2046002100F096FA98
:1005A0000546002818BF6FF00705284629B0BDE8AA
:1005B000F08F000010B582B013460A46014640F2A3
:1005C0005000C2F20000041D4FF4805C2046CDF8BC
:1005D00000C000F03DFB58B1204600F0DDFA0146B6
:1005E0006FF06500042908BF6FF0030002B010BD72
:1005F000002002B010BD000010B582B013460A46BC
:10060000014640F25000C2F20000041D4FF4805C2D
:100610002046CDF800C000F0EFFB58B1204600F0B6
:10062000BBFA01466FF06500042908BF6FF00300B4
:1006300002B010BD002002B010BD0000FEE70000B7
:1006400000281CBF6FF00100704780B540F2140015
:10065000C2F20000026940F2A800C2F20000006885
:1006600090476FF0040101EAE07080BD00281CBFD4
:100670006FF00100704780B540F21400C2F2000034
:10068000C26840F2A800C2F20000006890476FF014
:10069000040101EAE07080BD00281CBF6FF001007A
:1006A000704780B540F21400C2F20000C26940F207
:1006B000A800C2F20000006890476FF0040101EA50
:1006C000E07080BD70B588B000281EBF6FF00100DB
:1006D00008B070BD0024C4F2022420460421002288
:1006E00000F0E8F9022000F085F8204604210122FC
:1006F00000F0E0F9022000F07DF85220ADF8100083
:1007000040F2C140C0F60000029040F27140C0F6D5
:100710000000039040F2F950C0F60000059040F24E
:10072000B550C0F6000040F2A804069040F26D40BB
:10073000C2F20004C0F6000004F11405079002A9FB
:10074000284604F04DF818B14FF0FF3008B070BDE6
:1007500001A9284604F026F80028F5D101984EF6A4
:10076000AA318842F0D140F21406C2F20006316884
:100770002846256088470028E6D154F8040BF26823
:10078000214690470028DFD1002008B070BD00004E
:1007900000281CBF6FF00100704780B540F21400C4
:1007A000C2F20000826840F2A800C2F200000068B5
:1007B00090476FF0040101EAE07080BD00281CBF83
:1007C0006FF00100704780B540F21400C2F20000E3
:1007D000026A40F2A800C2F20000006890476FF081
:1007E000040101EAE07080BD7047000072B600BFEE
:1007F000FEE70000B0B5044600F062F9054640F29D
:100800000400C2F200000078611C18BF044400BF5D
:1008100000F056F9401BA042FAD3B0BD2DE9F04FCD
:1008200082B0002974D047F67F72C0F22F0202EA2C
:10083000902200230026002701250092019129E043
:1008400001680322B240114301606FF0030101EA25
:10085000540103F01C0C0144D1F820800F2404FA49
:100860000CF428EA04040C628168914381604168B9
:1008700021EA0E014160C1689143C160019931FADA
:1008800005F205F1010507F1080706F1020603F17B
:1008900004033DD06C1E012202FA04FE1EEA010987
:1008A000EDD042F20001C4F202414FEA940801F196
:1008B000600C0F225CF828A007F0180B02FA0BF16D
:1008C0000AEA01028A46009901FA0BF18A42B7D17D
:1008D00042F20002C4F20242D2F8801021EA090179
:1008E000C2F88010D2F8841021EA0901C2F88410FD
:1008F000116821EA09011160516821EA090151607A
:100900005CF8281021EA0A014CF8281098E700BF8B
:1009100002B0BDE8F08F00002DE9F04F82B00C6806
:10092000002C00F0C38047F67F72C0F22F0202EA6B
:1009300090224FF001090092002200260027012595
:1009400001900FE0BCF1030F5FD100BF0C680837C6
:1009500034FA05F305F1010506F1020602F104027D
:1009600000F0A480A5F1010A09FA0AFE14EA0E0BB0
:10097000ECD0D1F804C04CF01004122C1FD16FF051
:10098000030303EA5A0402F01C0300EB0409D9F83C
:1009900020C05846D1F810B00F2404FA03F80BF029
:1009A0000F042CEA080C04FA03F343EA0C03834611
:1009B0000198C9F82030D1F804C04FF0010903684C
:1009C0000324B4406FEA0408A3430CF00304B440CA
:1009D0002343BCF1120F036017D809FA0CF313F08C
:1009E000061FAFD08368CC6803EA0803B4402343F2
:1009F000836043684FEA1C1423EA0E0304FA0AF4E6
:100A00002343BCF1030F4360A0D0C3688C6803EAA2
:100A10000803B44023435FEACC04C36096D542F296
:100A200000082AF00303C4F2024808EB030EDEF8C4
:100A300060C007F018040F23A3402CEA030C009BAE
:100A400003FA04F44CEA0403CEF86030D8F800C08E
:100A5000D1F804E04CEA0B035FEACE2458BF2CEA3D
:100A60000B03C8F80030D8F804C05FEA8E234CEAC4
:100A70000B0458BF2CEA0B04C8F80440D8F884C013
:100A80005FEA8E334CEA0B0458BF2CEA0B04C8F81B
:100A90008440D8F880C05FEACE334CEA0B0458BFDC
:100AA0002CEA0B04C8F8804050E700BF02B0BDE854
:100AB000F08F00001823002A08BF2823C150704778
:100AC00040F2B020C2F200000068704790F8412068
:100AD000202A03D190F84020012A01D1022070473A
:100AE000242280F841200268136823F00103136078
:100AF000136823F48053136013681943116011685D
:100B000041F001011160202180F84110002180F89E
:100B1000401008467047000090F84120202A03D179
:100B200090F84020012A01D102207047242280F849
:100B300041200268136823F001031360136823F453
:100B4000706343EA01211160116841F001011160F5
:100B5000202180F84110002180F84010084670479D
:100B6000002804BF0120704710B50446242084F8F3
:100B700041002068016821F001010160204600F079
:100B80000DFA0020606484F84100206384F842007C
:100B900084F8400010BD0000406C704790F84100A0
:100BA00070470000002804BF0120704710B50446BC
:100BB00090F8410028B9002084F84000204600F059
:100BC000EFF9242084F8410094E80910E2680168F4
:100BD000012A21F00101016023F070610161816847
:100BE00021F40041816003D14CF40041816009E0AF
:100BF0004CF40441022A816004D1416841F400614F
:100C000003E000BF416821F400614160416804F1E4
:100C1000100341F0007141F400414160C16821F4CA
:100C20000041C1600ECB114341EA0321E269C1607A
:100C3000216A11430160016841F001010160002057
:100C40002021606484F84110206384F8420010BDC4
:100C50002DE9F04782B0044690F84100202803D1E6
:100C600094F84000012803D1022002B0BDE8F087CB
:100C70000120984617460E4684F84000FFF720FFF3
:100C8000216805468A69120425D4222084F841008F
:100C9000102084F84200002060646762A4F82A8073
:100CA0006063608D40F20008B0F5807F49F6000077
:100CB000CFF60040C0F2FF1826D351F8042F6FF38F
:100CC0009F2602EA000308F51057FF22B24628E0EB
:100CD00088690004D9D5204619212A4602F0B4FAC1
:100CE00000286FD1FFF7ECFE401B21681A28EFD3D4
:100CF00088690004ECD5606C40F02000606420201E
:100D000084F8410001206EE0628D51F8047F6FF39A
:100D10009F26D3B246EA0343B24607EA000608F527
:100D2000923733433B430B602285618D0A9E002935
:100D300042D04FF0FF0900F580670FE0618D206819
:100D4000218550F8042FC9B24AEA01413A404FF0D8
:100D50000073114319430160608D68B3204631462A
:100D60002A4602F0A3FB68BB2068616A406A0870EB
:100D7000606A218D01306062481E2085618D0139D5
:100D80006185618D0029E7D00004E5D120468021EE
:100D900000223346009502F007FB98B9608DB0F54C
:100DA000807FCBD32068A4F8289050F8041F5246C7
:100DB00039404346CDE700BF204631462A4602F07F
:100DC000DFFB18B1012002B0BDE8F08720682021C8
:100DD000C16142684EF60003CFF600631A404260DC
:100DE000002084F84110002184F8421084F840105B
:100DF00002B0BDE8F08700002DE9F04782B004465C
:100E000090F84100202803D194F84000012803D134
:100E1000022002B0BDE8F0870120984617460E4632
:100E200084F84000FFF74CFE216805468A691204E9
:100E300025D4212084F84100102084F842000020AD
:100E400060646762A4F82A806063608D40F20008E5
:100E5000B0F5807F49F60000CFF60040C0F2FF18E1
:100E600026D351F8042F6FF39F2602EA000308F5FA
:100E70000057FF22B24628E088690004D9D52046F1
:100E800019212A4602F0E0F900286DD1FFF718FE7B
:100E9000401B21681A28EFD388690004ECD5606CE8
:100EA00040F020006064202084F8410001206CE0C4
:100EB000628D51F8047F6FF39F26D3B246EA034355
:100EC000B24607EA000608F5903733433B430B6010
:100ED0002285618D0A9E002940D04FF0FF0900F560
:100EE00080670FE0618D2068218550F8042FC9B21A
:100EF0004AEA01413A404FF000731143194301603F
:100F0000608D58B3204631462A4602F079FB58BB23
:100F1000606A226810F8011B91626062608D01387E
:100F20006085208D01382085618D0029E8D000047E
:100F3000E6D12046802100223346009502F034FAA3
:100F400090B9608DB0F5807FCCD32068A4F828904C
:100F500050F8041F524639404346CEE720463146FA
:100F60002A4602F00DFB18B1012002B0BDE8F0875F
:100F700020682021C16142684EF60003CFF600636D
:100F80001A404260002084F84110002184F8421089
:100F900084F8401002B0BDE8F08700007047000000
:100FA0007047000040F20041C4F203010A68D20712
:100FB0001CBF012070470A6822F004021043086039
:100FC0000020704740F20041C4F20301086840F07D
:100FD000010200200A60704740F2040040F2B02194
:100FE000C2F20000C2F2000100780A6810440860F2
:100FF0007047000080B5032000F0A6F801F046FB22
:1010000040F62041C4F20241096845F2CC0201F0E9
:101010000F01C0F60002515CC84040F21001C2F25C
:1010200000010860042001F0EDFE0F2000F008F838
:1010300000281CBF012080BD00F058F8002080BDB2
:1010400070B540F20406C2F200063178E1B30446FE
:101050004EF21000CEF200000068400710D401F0FC
:101060002BFF02281CD0012822D078BB40F21000B0
:10107000C2F20000006831784FF4FA5207E000BF76
:1010800040F21000C2F2000000684FF47A72B2FB26
:10109000F1F1B0FBF1F001F0FDFEA8B91BE000BFDB
:1010A00030784FF47A71B1FBF0F04FF4004106E074
:1010B00030784FF47A71B1FBF0F04FF4FA41B1FBA4
:1010C000F0F001F0E7FE30B1012070BD002001F02A
:1010D000E1FE0028F8D14FF0FF3021460022002524
:1010E00000F006F82846746070BD000070470000EC
:1010F00010B54EF60C5CCEF2000CDCF80030C3F3F9
:10110000022E8EF00704042C28BF0424BEF1030332
:101110004FF0FF3E38BF00230EFA04F4A14399407C
:101120000EFA03F39A43114300F00F02043A6244AB
:1011300009010C3200F16043B0F1FF3FC8BF03F575
:101140006442117010BD00004EF60C51CEF2000149
:101150000A684FF6FF031A4060F30A2242F08060EB
:1011600040F0FD700860704710B540F6284CC4F29E
:10117000024CDCF80CE0DCF80010DCF80020C2F3D4
:101180000523DCF80020DCF81040DBB3C4F3CC040A
:1011900002F0100204FB02F201F0030100EE102A3B
:1011A0000329B8EE400A6FF35F2E31D0022935D003
:1011B00001295CF8281C49F20002C1F3C101C0F208
:1011C000D03222FA01F101EE101A02EE103AB8EE16
:1011D000411AB8EE422A9FED4F3A81EE021A02EE12
:1011E00010EA20EE030AB8EE422A30EE020AB7EE09
:1011F000002A30EE022A5CF8281C22EE010A89013E
:101200002CD527E00021C0E90011816010BD00BF8E
:1012100001EE103A9FED3E2A04E000BF01EE103AC5
:101220009FED3D2AB8EE411A82EE012A01EE10EA46
:101230009FED383AB8EE411A20EE030A30EE010A6B
:10124000B7EE001A30EE011A5CF8281C22EE010AF3
:10125000890103D5DCF80010C90307D4002101601F
:101260005CF8281C890118D41BE000BFDCF80C10C6
:10127000B7EE002AC1F3462101EE101AB8EE411A6A
:1012800031EE021A80EE011ABCEEC11A11EE101AEC
:1012900001605CF8281C890103D5DCF80010890383
:1012A00002D4002112E000BFDCF80C10B7EE002AD7
:1012B000C1F3064101EE101AB8EE411A31EE021ADE
:1012C00080EE011ABCEEC11A11EE101A41605CF8F2
:1012D000281C890144BFDCF800105FEA413103D4C7
:1012E0000021816010BD00BFDCF80C10B7EE002AB1
:1012F000C1F3066101EE101AB8EE411A31EE021A7E
:1013000080EE010ABCEEC00A10EE101A816010BD1A
:1013100020BCBE4B000000390024744A10B540F6D2
:101320002C4CC4F2024CDCF810E0DCF80010DCF8C5
:101330000020C2F30523DCF80020DCF81440DBB306
:10134000C4F3CC0402F0100204FB02F201F003012A
:1013500000EE102A0329B8EE400A6FF35F2E31D059
:10136000022935D001295CF82C1C49F20002C1F396
:10137000C101C0F2D03222FA01F101EE101A02EEE0
:10138000103AB8EE411AB8EE422A9FED4F3A81EE7C
:10139000021A02EE10EA20EE030AB8EE422A30EEFC
:1013A000020AB7EE002A30EE022A5CF82C1C22EE6C
:1013B000010A09012CD527E00021C0E90011816054
:1013C00010BD00BF01EE103A9FED3E2A04E000BFC1
:1013D00001EE103A9FED3D2AB8EE411A82EE012A45
:1013E00001EE10EA9FED383AB8EE411A20EE030AFA
:1013F00030EE010AB7EE001A30EE011A5CF82C1C30
:1014000022EE010A090103D5DCF80010C90307D454
:10141000002101605CF82C1C090118D41BE000BFFE
:10142000DCF81010B7EE002AC1F3462101EE101AC5
:10143000B8EE411A31EE021A80EE011ABCEEC11A62
:1014400011EE101A01605CF82C1C090103D5DCF8C0
:101450000010890302D4002112E000BFDCF8101054
:10146000B7EE002AC1F3064101EE101AB8EE411A98
:1014700031EE021A80EE011ABCEEC11A11EE101AFA
:1014800041605CF82C1C090144BFDCF800105FEAE5
:10149000413103D40021816010BD00BFDCF8101081
:1014A000B7EE002AC1F3066101EE101AB8EE411A38
:1014B00031EE021A80EE010ABCEEC00A10EE101ADC
:1014C000816010BD20BCBE4B000000390024744A6E
:1014D00080B584B04FF6FF730246C0F21F030020B0
:1014E0009B1A70EB010347DA6FF060439B1A70EBB5
:1014F0000103C0F287806FF07C439B1A4FF000031A
:101500008B4180F2DD8082F080630B4300F08E819E
:1015100082F000630B4300F09F8182F08052114300
:1015200040F0AC8240F60041C4F20241D1F8E00044
:10153000C0F3C202042A00F2C98248F20000C0F2DD
:10154000BB00DFE812F0D2029502C3029B02050045
:10155000D1F8E8200B6808689B0702F0404202D5EA
:10156000002A00F04F83800540F12883B2F1804FBC
:1015700000F03B8322E300BF41F6FF739B1A70EB40
:1015800001036BDA4FF6FF739B1A4FF000038B4198
:1015900080F2D88082F480330B4300F0878182F49C
:1015A00000330B4300F09E8182F48022114340F00F
:1015B000658240F60041C4F20241D1F8DC00C0F37C
:1015C00002320020052A00F25982DFE812F073028D
:1015D000510257029B02A302070000BFD1F8E82086
:1015E0000B6808689B0702F0404202D5002A00F011
:1015F0000983800540F1E282B2F1804F00F0F5826C
:10160000DCE200BF0F2940F3C58081F010031343D3
:1016100000F0828181F40073134300F09D8181F416
:101620008051114340F02A8240F60041C4F2024149
:10163000D1F8E40000F04062B2F1806F00F0FE816A
:10164000002A00F06381086880074FF0000040F135
:101650001582B2F1006F00F042810FE2D2F1030374
:101660004FF000038B41C0F2B58082F001030B43C1
:1016700000F0928182F00202114340F0FF8140F6B7
:101680000040C4F20240D0F8D81011F0380100F048
:1016900011820268120102D5082900F01B8203683A
:1016A00002689B0702D5182900F00082920502D536
:1016B000202900F09A82D0F8F0002839B0E200BF6B
:1016C00082F400130B4300F0878182F00072114313
:1016D00040F0D48140F60041C4F20241D1F8F0005C
:1016E000D1F8F020920700F4407206D5B2F5807F61
:1016F00002BF4FF4004004B080BDD1F8F0000001FB
:1017000006D5B2F5007F02BF4FF4FA4004B080BDA9
:10171000086880034FF0000040F1B081B2F5407FCF
:1017200040F0AC81C86910F4785F00F0CF81C869DF
:1017300047F64001C0F30520C0F27D11B1FBF0F087
:1017400004B080BD82F400530B4300F05B8182F44F
:101750008042114340F0928140F60040C4F20240C2
:10176000D0F8E41001F44021B1F5802F00F066813B
:10177000002900F09F8102680068920703D5B1F547
:10178000002F00F03F8200F400720020B1F5402FDE
:1017900054E200BF82F000530B4300F0558181F00A
:1017A0000401114340F06A8140F60040C4F2024057
:1017B000D0F8E8100068800301F4407040F18081A7
:1017C000002840F07D8147F64000C0F27D1004B053
:1017D00080BD00BF82F004030B4300F0518182F40E
:1017E0008052114340F04A8140F60040C4F202406A
:1017F000D0F8E01001F0E061B1F1807F00F06A8183
:10180000002900F08380036802689B0703D5B1F1CB
:10181000407F00F04B81920503D5B1F1806F00F05D
:10182000E481D0F8F00001F17B41F9E140F600409D
:10183000C4F20240D0F8E810026801F030019204CE
:1018400040F14E81002940F04B8146F60040C0F245
:10185000DC2004B080BD00BF40F60041C4F202416C
:10186000D1F8E00000F00702042A00F22F8148F2CC
:101870000000C0F2BB00DFE812F03801FB002901D4
:1018800001010500D1F8E8200B6808689B0702F009
:10189000404202D5002A00F0B581800540F18E81DA
:1018A000B2F1804F00F0A18188E100BF40F6004115
:1018B000C4F20241D1F8E40000F04072B2F1807F3E
:1018C00000F0BC80002A00F0F580086880074FF027
:1018D000000040F1D380B2F1007F40F0CF80086873
:1018E00090E100BF40F60041C4F20241D1F8DC00B3
:1018F000C0F302220020052A00F2C080DFE812F0C7
:101900000600B800BE0002010A01500104B0BDE8A3
:10191000804000F097BE00BF40F60040C4F2024095
:10192000D0F8E41001F03001102900F0DE800268E8
:10193000120102D5202900F0CD800068302900F482
:1019400000524FF0000004BF46F60040C0F2DC2019
:10195000002A08BF104691E040F60041C4F202415F
:10196000D1F8E800D1F8F02000F00800920705D582
:10197000002802BF4FF4004004B080BDD1F8F01041
:10198000002818BF4FF4FA4001F00061002908BF99
:10199000084604B080BD00BF40F60040C4F20240DB
:1019A000D0F8D81011F0070100F0A68002681201EB
:1019B00002D5012900F08E80036802689B0701D5DB
:1019C000032973D0920502D5042900F00E81D0F8C6
:1019D000F000053924E100BF40F60040C4F20240A7
:1019E000D0F8E81001F00701022927D0012900F002
:1019F0009B80002940F09E8004B0BDE8804000F04C
:101A0000C1BD00BF40F60040C4F20240D0F8E4106F
:101A100001F44031B1F5803F10D000294AD002686E
:101A20000068920703D5B1F5003F00F0EB8000F4A9
:101A300000720020B1F5403F00E100BF01A8FFF7B0
:101A40006DFC039804B080BD40F60041C4F2024131
:101A5000D1F8E000C0F38212042A37D848F200001F
:101A6000C0F2BB00DFE802F04104320A8C0000BF84
:101A700001A8FFF753FC019804B080BD04B080BDFD
:101A800040F60040C4F20240D0F8D81011F4E071E2
:101A900010D00268120101D540291BD003680268EA
:101AA0009B0740F19D80C02940F09A80C2F3C1009D
:101AB000AAE000BF04B0BDE8804000F07BBD00BFDD
:101AC000B0F5007F06D0B0F5807F0ED0002004B0C6
:101AD00080BD00BF01A8FFF721FC029804B080BDC3
:101AE0000268920132D5102930D101A8FFF73CFBE2
:101AF000029804B080BD00BF04B0BDE8804000F093
:101B00007DBD00BFD1F8F0004FF4004101EA803004
:101B100004B080BDD1F8F0004FF4FA41000101EAB1
:101B2000E07004B080BD00BF04B0BDE8804000F0AC
:101B3000ADBD00BF026892035ED503295CD147F6B4
:101B40004000C0F27D1004B080BD00BFD0F8F0208E
:101B5000920705D5202902BF4FF4004004B080BD94
:101B6000D0F8F000302900F000624FF0000008BF0C
:101B70004FF4FA40002A08BF104604B080BD00BFF1
:101B8000D1F8E8200B6808689B0702F0404200D5B6
:101B9000C2B3800512D5B2F1804F26D00EE000BF4F
:101BA000D1F8E8200B6808689B0702F0404200D596
:101BB00042B3800502D5B2F1804F16D00868B2F169
:101BC000004F00F400314FF0000004BF47F6400022
:101BD000C0F27D10002908BF084604B080BD00BFD8
:101BE000920519D5B1F5807F16D140F60010C0F2EC
:101BF0003D0004B080BD00BF02680068920719D59F
:101C0000042917D1C0F3C10049F20001C0F2D0315C
:101C100021FA00F004B080BDD0F8F000A1F5A07169
:101C200010F00200B1FA81F14FEA511118BFC80358
:101C300004B080BD00F400720020052904BF40F606
:101C40000010C0F23D00002A08BF104604B080BD5D
:101C50002DE9F0470446006840F62848C101C4F267
:101C6000024807D5D8F8C010226B21F0404111433B
:101C7000C8F8C010C00714D0606BC11E032909D377
:101C800040B1012814D104F1080001F0ABFE064672
:101C900040B9606BD8F8B01021F007010843C8F8CC
:101CA000B00000262078800706D4354622E000BF29
:101CB000012620788007F8D5A06B6FF0020101EBB8
:101CC000F001354603290AD34FEAF000354630B11A
:101CD000012831D104F1080001F084FE05462F46A9
:101CE0004DB9D8F8B000A16B20F0380008430025AA
:101CF000C8F8B00037462078400722D5E06B6FF077
:101D0000020101EBB011032909D34FEAB01030B141
:101D1000012837D104F1080001F064FE05462E4683
:101D200085B9D8F8B000E16B20F4E07008430025D5
:101D3000C8F8B00005E000BF012501272078400762
:101D4000DCD43E466078C00621D5206C6FF00201DD
:101D500001EB3061032909D34FEA306030B101282B
:101D60003CD104F1080001F03DFE05462F467DB947
:101D7000D8F8B800216C20F0E06008430025C8F8CE
:101D8000B80004E0012501266078C006DDD437469E
:101D90006078800627D5606C6FF0010101EB30415F
:101DA000022909D34FEA304030B1012810D104F1A3
:101DB000080001F017FE05462E465DB9D8F8BC00B4
:101DC000616C20F4403008430025C8F8BC000AE0EC
:101DD000012501266078400609D424E00125012769
:101DE00060788006D7D43E46607840061BD5A06C4C
:101DF0006FF0010101EBB041022909D34FEAB04075
:101E000030B1012832D104F1080001F0EBFD0546A4
:101E10002F464DB9D8F8BC00A16C20F440200843EF
:101E20000025C8F8BC003746A078C00723D0E06C76
:101E3000002818BFB0F1007F0CD12E46E5B9D8F8C4
:101E4000BC00E16C20F0407008430025C8F8BC00DD
:101E500011E000BFB0F1807F30D104F1080001F043
:101E6000C1FD05462E463DB9E9E700BF0125012722
:101E7000A078C007DBD13E466079C00623D5206D2F
:101E8000002818BFB0F1006F0CD12F46E5B9D8F883
:101E9000BC00216D20F0406008430025C8F8BC005C
:101EA00011E000BFB0F1806F62D104F1080001F0D1
:101EB00099FD05462F463DB9E9E700BF01250126FA
:101EC0006079C006DBD43746D4E9000140F61C4AED
:101ED000C4F2024A09050CD5DAF8001021F40041D9
:101EE000CAF80010D4F88010DAF800201143CAF8BC
:101EF000001080031BD5606D6FF0020101EB3021F3
:101F0000032909D34FEA302030B1012834D104F13C
:101F1000080001F067FD05462E464DB9D8F8B4001B
:101F2000616D20F4E06008430025C8F8B4003E4627
:101F3000A078400725D5A06D6FF0020101EB30318C
:101F4000032909D34FEA303030B101282AD104F1F6
:101F5000080001F047FD05462F469DB9D8F8B400AA
:101F6000A16D20F4E04008430025C8F8B40008E063
:101F700001250127A8E700BF01250126A078400719
:101F8000D9D43746A07880062BD5606E05280FD8A7
:101F9000022815D02946DDB1D4E90002920525D4E6
:101FA00033E000BF01250127A0788006EDD418E0BA
:101FB00001250121D4E90002920517D425E000BFD4
:101FC00004F1080001F00EFD0546002D2946E3D17D
:101FD000D8F8C000616E20F0070008430025C8F85B
:101FE000C0003946D4E9000292050ED5A26E42F037
:101FF0000803082B0ED1A94645B9D8F8C0300025F2
:1020000023F008031A43C8F8C0208946800106D48B
:10201000484621E001254FF001098001F8D54FF62F
:102020000847CFF6FF775AF8070040F001004AF85A
:102030000700FEF745FD06465AF80700C00707D11E
:10204000FEF73EFD801B0228F6D90325032003E09E
:10205000002D284600F00E8121684A011BD5226E12
:102060006FF0010303EB3213022B0AD34FEA321352
:102070003BB1012B2ED1D8F8003043F40033C8F81F
:1020800000302F4645B9D8F8C030002523F0300382
:102090001A43C8F8C020074608011FD5E06EC11ECC
:1020A00002290BD3012800F0BB80002840F0C28039
:1020B000D8F8000040F40030C8F800002E4675B98A
:1020C000D8F8B800E16E20F0070008430025C8F8F2
:1020D000B80003E0012501270801DFD43E46E0787F
:1020E000C0061FD5206F6FF0020101EBF00102293D
:1020F0000DD34FEAF000012800F0A080002840F046
:10210000A780D8F8000040F40030C8F800002F463F
:102110004DB9D8F8B800216F20F0380008430025E9
:10212000C8F8B8003746E07880061FD5606F6FF0BA
:10213000020101EBB01102290DD34FEAB0100128C2
:1021400000F08A80002840F09180D8F8000040F428
:102150000030C8F800002E464DB9D8F8B800616FBD
:1021600020F4E07008430025C8F8B8003E46207906
:10217000400721D5E06D58B1B0F5007F0CD0B0F527
:10218000807F49D1D8F8000040F40030C8F8000042
:102190002F4695B907E000BF04F1080001F022FCCA
:1021A00005462F464DB9D8F8C000E16D20F44070C7
:1021B00008430025C8F8C00037462079C0065CBF38
:1021C0003846BDE8F087E06F30280CD020280FD0CB
:1021D00010281CBF0120BDE8F087D8F8000040F4AB
:1021E0000030C8F8000055B12846BDE8F08700BFB0
:1021F00004F1080001F0F6FB0546002DF4D1D8F8F3
:10220000BC00E16F20F0300008433D46C8F8BC0038
:102210002846BDE8F08700BF01250127CDE700BFB4
:1022200004F1080001F0DEFB0546002D2E467FF488
:1022300056AF45E70125012651E700BF04F108002C
:1022400001F0D0FB0546002D2F467FF46CAF60E710
:102250000125012767E700BF04F1080001F0C2FB78
:102260000546002D2E467FF482AF76E70125012634
:102270007DE700BFD8F8C80010F4407016D0A16FF9
:10228000884211D0D8F8C800D8F8C81020F440709F
:1022900041F48031C8F8C810D8F8C81021F4803152
:1022A000C8F8C810C8F8C800C00721D1A06FDAF874
:1022B00000104FF6CF7300F4407221F47C51C0F24D
:1022C000FF0303EA1013B2F5407F08BF1943CAF8B1
:1022D0000010D8F8C8106FF31F3021F44071C8F80F
:1022E000C810D8F8C81000250843C8F8C8008FE601
:1022F000FEF7E6FB064641F288370325D8F8C8000A
:102300008007D3D4FEF7DCFB801BB8424FF00300FC
:10231000F4D9A1E62DE9F04381B0002800F0CD808A
:1023200042F20008C4F202080446D8F800000D4644
:1023300000F00F0088420DD2D8F8000020F00F0006
:102340002843C8F80000D8F8000000F00F00A842A9
:1023500040F0B380206840F62047C106C4F202472F
:102360000CD561693A68702303EA1222914205D9BB
:102370003A6822F4E04242EA0121396001070CD5B3
:1023800021693A68702303EA1212914205D93A682A
:1023900022F4E06242EA0111396041070AD5E1689E
:1023A0003A6802F07002914204D93A6822F0700251
:1023B0001143396081070AD5A1683A6802F00F021B
:1023C000914204D93A6822F00F0211433960C007E4
:1023D00068D1206881070AD5A1683A6802F00F0227
:1023E000914204D23A6822F00F0211433960D8F8C2
:1023F000001001F00F01A9420CD9D8F8001021F00B
:102400000F012943C8F80010D8F8001001F00F019F
:10241000A94252D141070AD5E1683A6802F0700238
:10242000914204D23A6822F07002114339600107E8
:102430000CD521693A68702303EA1212914205D241
:102440003A6822F4E06242EA01113960C0060CD514
:1024500060693968702202EA1121884205D2396820
:1024600021F4E04141EA0020386000F00FF93968BA
:1024700045F2CC0201F00F01C0F60002525C40F2BE
:102480000801C2F20001096840F2100320FA02F2CA
:10249000C2F2000308461A6001B0BDE8F043FEF73F
:1024A000CFBD00BF606801280CD002285ED0032891
:1024B00062D157F8201C890108D4012001B0BDE881
:1024C000F08300BF57F8201C8905F6D557F8041C87
:1024D00021F00301084347F8040CFEF7F1FA6168A4
:1024E0000646032941F288392BD0022937D0012929
:1024F00010D100BF57F8040C00F0180008283FF472
:1025000068AFFEF7DDFA801B48454FF00300F1D9B4
:102510000DE000BF57F8040C10F0180F3FF459AF4E
:10252000FEF7CEFA801B48454FF00300F2D901B008
:10253000BDE8F083FEF7C4FA801B48454FF0030066
:10254000F5D857F8040C00F018001828F2D140E72D
:10255000FEF7B6FA801B48454FF00300E7D857F85E
:10256000040C00F018001028F2D132E757F8201CB4
:102570008903A2D5AAE700BF57F8201C89079CD57C
:10258000A4E7000080B500F081F840F62041C4F2D5
:102590000241096845F2CC0201F00F01C0F60002C9
:1025A000515C01F01F01C84040F21001C2F200016D
:1025B000086080BD80B500F069F840F62041C4F2A3
:1025C00002410A6845F2CC0302F00F02C0F6000394
:1025D0009A5C02F01F02D04040F21002C2F20002E8
:1025E0001060096845F2DC02C1F30211C0F6000276
:1025F000515C01F01F01C84080BD000080B500F0B3
:1026000045F840F62041C4F202410A6845F2CC0385
:1026100002F00F02C0F600039A5C02F01F02D040E5
:1026200040F21002C2F200021060096845F2DC02BA
:10263000C1F30221C0F60002515C01F01F01C84045
:1026400080BD000080B500F021F840F62041C4F2C2
:1026500002410A6845F2CC0302F00F02C0F6000303
:102660009A5C02F01F02D04040F21002C2F2000257
:102670001060096845F2DC02C1F30231C0F60002C5
:10268000515C01F01F01C84080BD000080B540F6DC
:102690000041C4F20241C86900F01800082802BFD6
:1026A00040F60010C0F23D0080BDC86910F0180F60
:1026B00034D0C86900F01800102802BF47F6400067
:1026C000C0F27D1080BDC86900F01800182849F2DA
:1026D0000000C0F2D03066D1D1F828E08A6AC2F397
:1026E000052C8A6A8B6BBCF1000F04BF002080BDF3
:1026F000C2F30012C3F3CC0303FB02F200EE102A74
:102700000EF00302B8EE400A032A15D0012A17D1B1
:102710000A68920618D49FED251A1DE00868800605
:1027200049F20000C0F2D03058BF80BD0968C1F343
:10273000C101C84080BD00BF9FED1B1A0CE000BF67
:102740009FED1B1A08E000BF0A68C2F3C102D04027
:1027500001EE100AB8EE411A02EE10CA486BB8EE4C
:10276000422A6FF35F2081EE021A02EE100A9FEDFB
:10277000113AB8EE422A20EE030A486B30EE020A04
:10278000B7EE002AC0F3462030EE020A013021EEF7
:10279000000A01EE100AB8EE411A80EE010ABCEE02
:1027A000C00A10EE100A80BD20BCBE4B0024744C41
:1027B0000024744A000000392DE9F04381B000285C
:1027C00000F0168140F6004740F6F0490446C4F296
:1027D0000247C4F20249F86959F8C81C227800F08F
:1027E0001808D00601F0030629D5B8F1080F1BD050
:1027F000B8F1180F08BF022E16D0E1693868002919
:1028000000F0668140F480703860FEF759F90546A3
:10281000386880050CD4FEF753F9401B02284FF0AE
:102820000300F5D95EE200BFE069002800F0E08017
:10283000B869216A20F47C1040EA0140B861207830
:10284000C00717D0B8F1100F10D0B8F1180F08BF9B
:10285000032E0BD06068B0F5A02F5FDA002800F0DF
:10286000A181B0F5803F00F0C181C3E1606800281C
:1028700000F0BE802078800775D5B8F1000F21D018
:10288000E068B8F1180F08BF012E55D0396800284C
:1028900000F06481206921F018010843386038682D
:1028A00040F001003860FEF70BF9054638688007F4
:1028B00052D4FEF705F9401B02284FF00300F5D96A
:1028C00010E200BFE068002800F0928039682069BB
:1028D00001F01801814231D0396821F01801084314
:1028E0003860FFF7D3FE396A45F2CC0201F00F01E0
:1028F000C0F60002515C40F2100201F01F0120FA04
:1029000001F140F20800C2F200000068C2F20002C9
:102910001160FEF795FB00286AD10FE000F05E81A0
:10292000B0F5A81F40F06681386840F48020386018
:10293000386840F4801058E1002859D0FEF7C0F8FC
:10294000054600BF3868800706D4FEF7B9F8401B7B
:102950000228F7D965E000BF3869616920F4FE00FC
:1029600040EA014038612078000745D420784007CC
:102970005CD42078800600F17D80A56AA5B3B8F10B
:10298000180F40F0C98059F8C81C59F8BC0C012D2B
:102990002ED0E26A01F00303934229D1C1F305214D
:1029A000226B914224D1626B01466FF35F21013AA1
:1029B00091421DD1A16BC0F3462201398A4217D141
:1029C000E16BC0F3064201398A4211D1216CC0F398
:1029D0000660013988420BD159F8B80CE16CC0F39C
:1029E000CC00884240F0F281002001B0BDE8F083C5
:1029F000012001B0BDE8F083A169D9F800000029E9
:102A000050D040F08060C9F80000FEF759F8054644
:102A1000D9F800000001A9D4FEF752F8401B0228A3
:102A2000F6D9032001B0BDE8F08300BF4FF624467D
:102A3000CFF6FF76B859C00712D1B85940F001005F
:102A4000B851FEF73DF80546B859C00708D1FEF762
:102A500037F8401B02284FF00300F5D942E100BFD0
:102A6000A068042846DC002800F0E080012800F07F
:102A70000F8113E1616A3868002900F0818040F419
:102A800080503860FEF71CF8054600BF38688004A7
:102A90003FF573AFFEF714F8401B02284FF0030018
:102AA000F4D91FE120F08060C9F80000FEF708F8B3
:102AB000054600BFD9F8000000017FF557AFFDF7CC
:102AC000FFFF401B02284FF00300F3D90AE100BFCB
:102AD00020F480703860FDF7F3FF05463868800504
:102AE0007FF5ADAEFDF7ECFF401B02284FF0030071
:102AF000F4D9F7E0052800F0BF80852840F0CE80AB
:102B0000D9F8000040F00400C9F80000D9F800002E
:102B100040F08000BAE000BF386820F08070386074
:102B2000FDF7CEFF022D05460CD100BF38688001AD
:102B300040F1DC80FDF7C4FF401B02284FF003008A
:102B4000F4D9CFE03868800140F13281FDF7B8FF59
:102B5000401B02284FF00300F4D9C3E021F001002C
:102B60003860FDF7ADFF0546386880077FF5FBAE9E
:102B7000FDF7A6FF401B02284FF00300F4D9B1E097
:102B800020F480503860FDF79BFF054638688004CC
:102B90007FF5F3AEFDF794FF401B02284FF00300D2
:102BA000F4D99FE0386820F480303860386820F429
:102BB00080103860386820F480203860FDF780FF8E
:102BC000054600BF386880037FF554AEFDF778FFF7
:102BD000401B64284FF00300F4D983E0386840F4C8
:102BE00080203860386820F480103860386840F4FD
:102BF00080300AE0386820F480303860386820F48B
:102C000080203860386820F480103860FDF758FF65
:102C1000054600BF386880033FF52CAEFDF750FF36
:102C2000401B64284FF00300F4D95BE0D9F80000A2
:102C300020F00100C9F80000D9F8000020F0800061
:102C4000C9F80000D9F8000020F00400C9F800001D
:102C5000FDF736FF054641F2883600BFD9F800007F
:102C600080077FF586AEFDF72BFF401BB0424FF08B
:102C70000300F3D936E000BFD9F8000040F00400AB
:102C8000C9F80000D9F8000020F08000C9F8000061
:102C9000D9F8000040F0010010E000BFD9F80000B2
:102CA00020F00100C9F80000D9F8000020F004006D
:102CB000C9F80000D9F8000020F08000C9F8000031
:102CC000FDF7FEFE054641F2883600BFD9F8000048
:102CD00080073FF54EAEFDF7F3FE401BB0424FF0CC
:102CE0000300F3D901B0BDE8F08300BF59F8C80C68
:102CF00043F6037104F12C0388430ECB084340EAEA
:102D00000220A16B49F8C80C4FF47E4202EB41212E
:102D1000E26B581E4FF4FE0389B203EB02426FF3DD
:102D20005F20084402F4FE01226C4FF0FE4303EBE7
:102D30000262084402F0FE41084449F8BC0C59F80C
:102D4000C80C20F0100049F8C80CE06CC00049F82D
:102D5000B80C59F8C80C40F0100049F8C80C59F8E4
:102D6000C80C616C20F00C00084349F8C80C59F8F5
:102D7000C80CA16C20F02000084349F8C80C59F891
:102D8000C80C40F4803049F8C80C386840F08070B6
:102D90003860FDF795FE0446386880013FF524AEA3
:102DA000FDF78EFE001B02284FF00300F4D999E7CF
:102DB00059F8C80C4FF6FC71CFF6F871084049F885
:102DC000C80C002001B0BDE8F08300BF59F8C80C62
:102DD00020F0100049F8C80CFDF772FE0546FDF71B
:102DE0006FFEA842FBD0E06CC00049F8B80C59F85F
:102DF000C80C40F0100049F8C80C002001B0BDE834
:102E0000F0830000042888BF7047DFE800F0031556
:102E1000273839004EF21000CEF20000016821F090
:102E20000401016040F6E440C4F20240016821F070
:102E30000C010160704700BF4EF21000CEF200009E
:102E40000168012221F00401016040F6E440C4F26F
:102E50000240016862F38301016070474EF2100086
:102E6000CEF200000168022221F00401016040F668
:102E7000E440C4F20240016862F3830101607047DC
:102E80004EF21000CEF20000016841F00401016032
:102E900070470000411E0020B0EB116F1CBF0120E5
:102EA00070474EF21002CEF200025160906011683D
:102EB00041F00301116070474EF21000CEF20000A5
:102EC0000068400744BF0420704740F6E440C4F265
:102ED0000240006800F00C01081FB0FA80F04009C1
:102EE000082908BF0220704790F88410012904BF08
:102EF000022070472421C0F8881002681168136806
:102F000023F00103136021F0005300214166136098
:102F10002022C0F8882080F88410084670470000FE
:102F2000B0B590F88420012A04BF0220B0BD24224D
:102F3000C0F888200268D0F864E0D2F800C01368B6
:102F4000BEF1000F23F001031360936823F0606368
:102F500041EA0301916019D09368916845F2571EC8
:102F6000490FC0F6000E45F25F151EF80140C0F68D
:102F70000005C3F34263695CE400B4FBF1F11EF8A1
:102F80000340EB5CE500B5FBF3F301E00121012315
:102F9000A0F86A102021A0F86830C2F800C0C0F87C
:102FA0008810002180F884100846B0BDB0B590F8B4
:102FB0008420012A04BF0220B0BD2422C0F888204A
:102FC0000268D0F864E0D2F800C01368BEF1000FC8
:102FD00023F001031360936823F0604341EA030187
:102FE000916019D09368916845F2571E490FC0F659
:102FF000000E45F25F151EF80140C0F60005C3F350
:103000004263695CE400B4FBF1F11EF80340EB5C41
:10301000E500B5FBF3F301E001210123A0F86A10FC
:103020002021A0F86830C2F800C0C0F88810002144
:1030300080F884100846B0BD10B5E0B10446D0F861
:10304000880028B9002084F88400204600F028F881
:103050002420C4F888002068A16A0268002922F0B0
:10306000010202601CBF204600F0F0FD204600F087
:1030700019FF012802D1012010BD00BF2168486856
:1030800020F490404860886820F02A008860086832
:1030900040F0010220460A60BDE8104000F04ABE40
:1030A000704700002DE9F0410446D0F88800202840
:1030B0001CBF0220BDE8F0810F4600294FF001003F
:1030C0001CBF1646002A01D1BDE8F08120681D46CC
:1030D0008168090603D5816821F0800181604FF085
:1030E00000082120C4F89080C4F88800FDF7E8FCAF
:1030F000A4F85460A4F85660A1680646B1F5805F54
:1031000005D12069002814BF3846B8460746B4F8F0
:103110005600D8B1681C1BD0002D71D121680AE07F
:1031200017F8010B8862B4F856000138A4F856006D
:10313000B4F8560078B3C869000659D5002FEFD10E
:1031400038F8020B00276FF35F20EBE7216822E0DD
:10315000216802E0C869000609D4C869000606D4DF
:10316000C86900065CBFC8695FEA0060F2D51FB19C
:1031700017F8010B05E000BF38F8020B00276FF3CA
:103180005F208862B4F856000138A4F85600B4F8FD
:1031900056000028E1D1C869400623D445B3681C15
:1031A00010D100BFC869400616D4C869400613D4C0
:1031B000C869400610D4C86940064FF00000F1D538
:1031C00011E000BFFDF77CFC801BA84212D82068EC
:1031D0000168C0694006F5D500202021C4F8881098
:1031E000BDE8F08100202021C4F88810BDE8F081FE
:1031F000FDF766FC03202021C4F88810BDE8F081AB
:10320000216800BFC869000608D4FDF759FC801B7F
:10321000A842EFD821680868F4E700BF17B117F893
:10322000010B04E038F8020B00276FF35F2088627F
:10323000B4F856000138A4F85600B4F85600002837
:10324000E0D1A8E7FEE7000070B504460068154627
:103250008369DA0602D40021002266E00E461021BE
:10326000C161816989065CD4711C50D036BBFDF701
:1032700027FC2068426894F8421083691B040BD530
:1032800012F4804208D1202906D0416841F48041DF
:103290004160FDF715FC054620688169890605D463
:1032A000FDF70EFC401B1A28F6D328E08169890639
:1032B000DDD536E020688169890632D4FDF700FC4F
:1032C000401BB042F6D92068426894F842108369E6
:1032D0001B040BD512F4804208D1202906D0416886
:1032E00041F480414160FDF7EBFB054620688069B1
:1032F0008006DFD4FDF7E4FB401B1A28F6D32068D4
:1033000001228169242110E08169890609D481693B
:10331000890606D4816989065CBF81695FEA81619B
:10332000F2D52021C161012204218369DE0505D582
:103330004FF4807241F00101C26101225E0507D4A1
:103340009B050CD4002A04BF002070BD0CE000BF18
:1033500041F008014FF480629B05C26104D541F041
:1033600002014FF40072C2618269920744BF0022D9
:1033700082628269D20703D1826942F001028261CE
:1033800042684EF60003CFF600631A404260606C5C
:1033900008436064202084F84100002084F8420043
:1033A00084F84000012070BD2DE9F041044600681A
:1033B00080690840401AB0FA80F04009904271D10B
:1033C000DDF8188015460E461F46581C30D0002FD9
:1033D00042D100BF204600214246FFF735FF0028BA
:1033E0001CBF0120BDE8F081FDF76AFB2068816900
:1033F0003140891BB1FA81F14909A94242D0806963
:103400003040801BB0FA80F04009A8421CBF002069
:10341000BDE8F081DEE700BF206880693040801B96
:10342000B0FA80F04009A8421CBF0020BDE8F0813E
:1034300020464FF0FF314246FFF706FF0028EBD051
:103440000120BDE8F08100BF80693040801BB0FAE8
:1034500080F04009A84225D1204639464246FFF770
:10346000F3FE0028ECD1FDF72BFBA0EB0801206850
:10347000B942E9D981693140891BB1FA81F1490921
:10348000A942E1D1606C40F020006064202084F803
:103490004100002084F8420084F840000120BDE88B
:1034A000F08100BF0020BDE8F08100002DE9F04F61
:1034B00081B0044600684FF000088069002740078B
:1034C00049D44EF6000915468A464FF0200BCFF638
:1034D000006900BF204651462A46FFF7B5FE216825
:1034E00000288A69074618BF0127920619D5C0B976
:1034F00088698869C00603D40027676411E000BFAB
:103500001020C86104206064C1F81CB0486801271D
:1035100000EA0900486084F841B084F8428084F8E9
:1035200040805646BAF1000F18BF0126FDF7C8FAD1
:10353000401B0021504598BF012120680E4208BF62
:10354000002F03D181690027490709D58069400709
:1035500001D4002FBED0384601B0BDE8F08F00BFC7
:10356000616C41F020016164202184F8411084F8ED
:10357000407080690127384601B0BDE8F08F000037
:1035800070B5044600688069800637D415460E463B
:1035900019B92AE08069800630D4204631462A468F
:1035A000FFF752FE40BBFDF78BFA411B2068B1428A
:1035B000F0D981698906EDD4606C40F02000606428
:1035C000202084F84100002084F8420084F8400064
:1035D000012070BDFDF774FA206881698906EBD57A
:1035E0008069800644BF002070BD204600212A4625
:1035F000FFF72AFE0028EDD0012070BD002070BD2D
:1036000070B504460068806980074DD415460E46A3
:10361000481C1DD04EBB00BF204600212A46FFF7A4
:1036200013FE00281CBF012070BDFDF749FA206879
:103630008169890729D58069800744BF002070BD52
:10364000EAE700BF20688069800744BF002070BDA2
:1036500020464FF0FF312A46FFF7F6FD0028F1D053
:10366000012070BD806980071ED4204631462A465D
:10367000FFF7EAFD0028F3D1FDF722FA411B20688D
:10368000B142EFD981698907ECD4606C40F0200029
:103690006064202084F84100002084F8420084F80F
:1036A0004000012070BD00BF002070BD70B586B025
:1036B000002540F68C400595C4F2024001680024C4
:1036C00041F0010101600168C4F2022401F001012E
:1036D000009100990168002241F002010160006838
:1036E000042100F002000090009820460426FDF717
:1036F000E1F90120CDE9020501A9204601960495D2
:10370000FDF70AF906B070BD70B50446002045F219
:103710000041012244F2E533C4F20001C1F2C003CA
:10372000C4E90202C4E90400C4E90600206220469C
:10373000C4E90013FDF736FA054620460021FDF7DF
:10374000C5F9064620460021FDF7E6F93043284337
:1037500018BF012070BD000080B50020FDF722FCDD
:10376000002818BFFDF742F8FDF72CFC002808BF21
:1037700080BDBDE88040FDF739B8000080B500206D
:10378000FCF712FE06A001F08FFC0020FCF79AFF68
:10379000002808BF80BD0DA001F086FCFEE700BF39
:1037A000564C35334C3443442053696D706C65205E
:1037B00052616E67696E672064656D6F206170701D
:1037C0006C69636174696F6E000000004355535467
:1037D0004F4D5F52414E47494E475F53454E534F01
:1037E000525F496E6974206661696C65640000000F
:1037F0002DE9F04F81B02DED028B82B001A90020A0
:103800000025FCF7C5FF40F2DC04C2F200040020F2
:103810002146FCF72BFF0120214641F8100F1E2204
:10382000C1E903000020C1E90125FCF709FF0020E0
:103830000121FCF7C3FF9FED408A04F124050FF23C
:10384000C80934A60FF2141A0FF2F00B009506E027
:103850000A2001F023FC009DFA20FCF7CBFF00209A
:103860002946FCF719FF0028F6D1A16A22A001F031
:1038700053FAA06A0028EBD00027002505E000BF1E
:103880000135A06AEFB2B842E2D9484601F044FAE5
:1038900004EB87083046D8E90B2101F03DFAE069D6
:1038A00090B198ED0D0A5846B6EEC01A30EE411AA6
:1038B000BDEEC00A21EE081A10EE101ABDEEC11AB4
:1038C00011EE102A01F028FA206A0028D8D098EDCD
:1038D0000E0A5046B6EEC01A30EE411ABDEEC00ACE
:1038E00021EE081A10EE101ABDEEC11A11EE102AC0
:1038F00001F012FAC4E700BF0A546172676574737D
:10390000203D20256C7500000A207C2D2D2D3E20A9
:1039100000000000537461747573203D20256C64B1
:103920002C2044697374616E6365203D2025356CDD
:1039300064206D6D200000000000C8422C20416D05
:103940006269656E74203D20256C642E2530326CD2
:1039500064206B6370732F73706164002C20536953
:10396000676E616C203D20256C642E2530326C64BE
:10397000206B6370732F737061640000F0B581B0C9
:1039800043F6000204464FF4E130C4F20102002184
:103990000C23C4E900202046C4E90211C4E9041341
:1039A000C4E90611C4E90811A162FFF745FB054609
:1039B00020460021FFF7FAFA064620460021FFF7CD
:1039C000AFFA07462046FFF78FFA384330432843C3
:1039D00018BF012001B0F0BDFEE70000FEE70000C7
:1039E0007047000070B540F62C46C4F2024656F807
:1039F0002C1C044621F0806046F82C0CFDF760F882
:103A0000054600BF56F82C0C000107D5FDF758F805
:103A1000401B022884BF032070BDF3E7306843F6E3
:103A20000371884394E80E00084340EA0220E168ED
:103A300030604FF47E4202EB41212269581E4FF460
:103A4000FE0389B203EB02426FF35F20084402F4E5
:103A5000FE0162694FF0FE4303EB0262084402F08C
:103A6000FE41084430613068A16920F00C00084331
:103A700030603068E16920F0200008433060606AFF
:103A800031680843306030684FF6F87120F010005C
:103A900030607069226A884340EAC2007061306811
:103AA00040F01000306056F82C0C40F0806046F872
:103AB0002C0CFDF705F8044656F82C0C000144BF09
:103AC000002070BDFCF7FCFF001B032824BF03206F
:103AD00070BDF1E770470000FDF77EBA10B59CB0ED
:103AE00008A840F6140404302421C4F20244FCF770
:103AF00009FC0020CDE90600CDE90400CDE9020073
:103B000054F8040C40F0300044F8040C54F8040C51
:103B100000F03000019001982068000709D4206867
:103B200000075CBF20685FEA007002D420680007CD
:103B3000F2D5102008904FF480700F9020200121C2
:103B40001090022014917D21CDE91200CDE91510CD
:103B5000CDE9170008201990002408A8CDE91A44DF
:103B6000FEF72AFE10B172B6FEE700BF1F200290DA
:103B70000320CDE9030402A80521CDE905440794FB
:103B8000FEF7C8FB10B172B6FEE700BF42F20000BC
:103B9000C4F202000168022262F3051101601CB048
:103BA00010BD00004EF6885CCEF2000CDCF8000080
:103BB000012240F47000CCF8000040F60040C4F24E
:103BC000024002600022C261026203684EF6E321F5
:103BD000CFF6E2211940016040F28021C0F20111CC
:103BE0008262C26241638263C1630264016821F43C
:103BF0008021016002654FF0006142F21C00C4F2B6
:103C000002004CF8801C50F8041C4A0F062A05D804
:103C100001F06041B1F1404F18BF70470168C9071A
:103C20000BD042F63B21C0F6190140F8101C46F6B5
:103C30007F61C4F65D4140F8101C016841F002014B
:103C40000160016841F001010160704780B5816A3F
:103C50000A070DD4CA0716D18A071FD44A0728D4E9
:103C6000CA0631D48A063AD44A0658D542E000BF83
:103C70000268D0F838C0536823F4004343EA0C03C9
:103C80005360CA07E8D00268D0F82CC0536823F408
:103C9000003343EA0C0353608A07DFD50268D0F88B
:103CA00030C0536823F4803343EA0C0353604A075F
:103CB000D6D50268D0F834C0536823F4802343EA91
:103CC0000C035360CA06CDD50268D0F83CC0936897
:103CD00023F4805343EA0C0393608A06C4D5026838
:103CE000D0F840C0936823F4005343EA0C03936078
:103CF0004A0614D50268D0F844C05368BCF5801F4A
:103D000023F4801343EA0C03536008D1D2F804C0B3
:103D1000D0F848E02CF4C00343EA0E0353600906D0
:103D200058BF80BD0168C06C4A6822F4002210436D
:103D3000486080BDB0B582B004460020C4F8900051
:103D4000FCF7BEFE216805460A68120737D56FF0FA
:103D50007E4C20464FF4001100222B46CDF800C0C7
:103D600000F078F950B300BF206850E8000F2168D8
:103D700020F0800041E80002DAB1206850E8000F2E
:103D8000216820F0800041E8000292B1206850E8EC
:103D9000000F216820F0800041E800024AB120684D
:103DA00050E8000F216820F0800041E80002002A5E
:103DB000DAD12020C4F8880060E000BF21680868DC
:103DC000400761D56FF07E4C20464FF48001002201
:103DD0002B46CDF800C000F03DF9002854D000BFBC
:103DE000206850E8000F216820F4907041E800023C
:103DF000E2B1206850E8000F216820F4907041E89B
:103E000000029AB1206850E8000F216820F49070F9
:103E100041E8000252B1206850E8000F216820F408
:103E2000907041E80002002ADAD100BF206850E813
:103E3000020F216820F0010041E80202DAB1206897
:103E400050E8020F216820F0010041E8020292B11F
:103E5000206850E8020F216820F0010041E80202CA
:103E60004AB1206850E8020F216820F0010041E8C3
:103E70000202002ADAD12020C4F88C00032000219D
:103E800084F8841002B0B0BD2020C4F88800C4F8C3
:103E90008C000020E0662067002184F8841002B0C6
:103EA000B0BD000070B504460168806804F10C05DF
:103EB0002CCD18432843E6690B6846F6F315CCF67B
:103EC000FF7530432B401843086048684FF2FF45A8
:103ED00020F440501043486042F20042A069C4F20E
:103EE000004291421CBF236A18438B68C1F2FF1540
:103EF0002B4018438860C86A636A20F00F0018439B
:103F000043F2FF73C4F201039942C86210DC44F229
:103F10000040C4F20000814218D044F60000C4F210
:103F20000000814256D10420914216D155E000BFD5
:103F300043F60000C4F2010081420BD0914249D106
:103F40004FF48050914208D147E000BF02209142D7
:103F500003D142E0012091423FD00021FDF7B8FAA1
:103F6000B6F5004F1ED1002864D0616A45F2E40224
:103F7000C0F6000232F811106268B0FBF1F051088F
:103F800001EB4000B0FBF2F04FF6EF72A0F1100130
:103F9000914253D84FF6F071C0F3420208401044EA
:103FA00043E000BF002847D0616A45F2E402C0F652
:103FB000000232F811106268B0FBF1F000EB520021
:103FC000B0FBF2F04FF6EF72A0F1100191422CD944
:103FD000012536E000209142BFD100210025FDF7E8
:103FE00077FA70B3616A45F2E402C0F6000232F873
:103FF00011106268B0FBF1F002EB4201012588422A
:104000001FD3110388421CD8010E000210EB52008E
:1040100041F100010023FCF73DF94FF60052A0F5F5
:104020004071C0F20F0291420AD221680025C86097
:1040300007E000BF002504E0002502E0012500E0C4
:1040400001254FF00110A066002128466167A16795
:1040500070BD00002DE9F041804600681546C26938
:104060000E461140891BB1FA81F14909A94240F07D
:104070008380069C34B3611C2AD100BFC1693140E2
:10408000891BB1FA81F14909A94275D1C169314051
:10409000891BB1FA81F14909A9426DD1C169314049
:1040A000891BB1FA81F14909A94265D1C169314041
:1040B000891BB1FA81F14909A9421CBF0020BDE862
:1040C000F081DBE7FCF7FCFC0320BDE8F08100BFDA
:1040D0001F4607E0C0693040801BB0FA80F04009FD
:1040E000A84249D1FCF7ECFCC01BA04284BF0320CE
:1040F000BDE8F081D8F8000001684907EAD5402EF4
:1041000018BF802EE6D0C169090739D4C1690905F5
:10411000E0D54FF40061016250E8000FD8F80010BC
:1041200020F4907041E80002002A5FD0D8F8000027
:1041300050E8000FD8F8001020F4907041E8000219
:10414000002A53D0D8F8000050E8000FD8F800102B
:1041500020F4907041E80002002A47D0D8F800000F
:1041600050E8000FD8F8001020F4907041E80002E9
:10417000E2B3D8F80000CFE70020BDE8F08100BF2F
:104180000821016250E8000FD8F8001020F4907068
:1041900041E80002002A00F09780D8F8000050E8BB
:1041A000000FD8F8001020F4907041E80002002AB7
:1041B00000F08A80D8F8000050E8000FD8F800100E
:1041C00020F4907041E80002002A7DD0D8F8000069
:1041D00050E8000FD8F8001020F4907041E8000279
:1041E000002A71D0D8F80000CCE700BF4FF6FE706F
:1041F000CEF6FF70D8F8001051E8021FD8F8002062
:10420000014042E80213F3B1D8F8001051E8021F50
:10421000D8F80020014042E80213A3B1D8F80010FA
:1042200051E8021FD8F80020014042E8021353B1C0
:10423000D8F8001051E8021FD8F80020014042E8E9
:104240000213002BD6D1D8F86C0001282CD1D8F855
:10425000000050E8000FD8F8001020F0100041E8EE
:1042600000020AB3D8F8000050E8000FD8F8001098
:1042700020F0100041E80002B2B1D8F8000050E888
:10428000000FD8F8001020F0100041E800025AB1E9
:10429000D8F8000050E8000FD8F8001020F0100007
:1042A00041E80002002AD2D120200021C8F88C0069
:1042B000C8F86C10C8F87410C8F89000032088F88B
:1042C0008410BDE8F08100BF4FF6FE70CEF6FF709F
:1042D000D8F8001051E8021FD8F80020014042E849
:1042E0000213F3B1D8F8001051E8021FD8F80020EB
:1042F000014042E80213A3B1D8F8001051E8021FB0
:10430000D8F80020014042E8021353B1D8F8001059
:1043100051E8021FD8F80020014042E80213002BA8
:10432000D6D1D8F86C0001282CD1D8F8000050E87C
:10433000000FD8F8001020F0100041E800020AB386
:10434000D8F8000050E8000FD8F8001020F0100056
:1043500041E80002B2B1D8F8000050E8000FD8F8E8
:10436000001020F0100041E800025AB1D8F8000017
:1043700050E8000FD8F8001020F0100041E80002CB
:10438000002AD2D12020C8F88C0000200821C8F8CB
:104390006C00C8F87400C8F8901088F884000120F8
:1043A000BDE8F081FEE700002DE9F04182B00DF19B
:1043B0000706884630213246054600F091F99DF8FF
:1043C00007100746C1F300142846312132468DF804
:1043D000074000F085F99DF80710384301F001010E
:1043E000614088F8001002B0BDE8F081862101220A
:1043F00000F026BC80B500286FF0010218BF00292C
:1044000002D1104680BD00BF0A68D3B2042B09D286
:10441000B1F804C00A89614600F0B8FA02461046B5
:1044200080BD00BFFF2B1CBF6FF0010080BD0021CD
:1044300041F27072FF2300F0A9FA80BDB0B50446C6
:1044400000286FF001001CBF0D46002900D1B0BD4F
:104450002878022808D1A86800281ABF4FF47A717A
:10446000B1FBF0F2002200E000226968204600F073
:10447000AFFA00281CBF4FF0FF30B0BDD5E90301F3
:10448000002818BF012020770020002918BF012133
:104490006177B0BD6FF003007047000010B50028D1
:1044A00004BF6FF0010010BD0446007E012802D158
:1044B0006068804710B14FF0FF3010BD00202076BB
:1044C00010BD0000024600286FF0010018BF00294F
:1044D00000D17047108908600020704700286FF0F5
:1044E000010018BF002901D1704700BF0122002040
:1044F000C1E90022C1E90202704700002DE9F04144
:1045000084B0044600286FF001001CBF88460029D3
:1045100002D104B0BDE8F081607E80B3A07E0128A6
:1045200014D16069804706466F464FF6FF7500BF9D
:1045300020463946FFF738FF9DF8000001280FD0CC
:1045400060698047801BA842F2D30FE06069804712
:1045500069462046FFF728FF9DF80000012803D197
:1045600000200028D5D105E0606980476FF0020087
:104570000028CED16946204600F03AF820B14FF02D
:10458000FF3004B0BDE8F0810120BDF80210002327
:10459000C8E9000008F108009DF800200EC0C8F826
:1045A0001430207F012807D1BDF8060000EE100A64
:1045B000B8EE400A88ED040A607F012807D1BDF8F3
:1045C0000A0000EE100AB8EE400A88ED050AE07E07
:1045D00001281EBF002004B0BDE8F0812046FFF78F
:1045E00005FF04B0BDE8F0816FF0030070470000E4
:1045F000F0B581B00C460DF101028921054600F0AD
:104600006FF89DF80110074601F01F0017288DF87C
:10461000010003D820A1085C8DF801000DF102060D
:10462000207028468C21324600F098F89DF803103F
:104630000743A18128468E21324600F08FF8BDF84D
:1046400002100743C800208128469021324600F01E
:1046500085F8BDF802100743C800A08028469221C3
:10466000324600F07BF8BDF8021007438808E0816D
:1046700028469621324600F071F8BDF802102289D2
:10468000A3896180B2FBF3F1A2886181B2FBF3F1EF
:104690003843E18001B0F0BDFFFFFF0502040107D0
:1046A0000300FFFF090DFFFFFFFF0A06FFFF0B0CD2
:1046B00010B5002804BF6FF0010010BD0446007E55
:1046C00018B9204600F0AAF810B14FF0FF3010BD25
:1046D000002001216077C4F81900217610BD000088
:1046E00070B540F219130446C2F2000348BA1880AC
:1046F0002089E568164619460222A84710B1C0B2C3
:1047000070BD00BF20892369314601229847C0B29D
:1047100070BD000070B540F219130546C2F20003E7
:1047200048BA18802889EC68164619460222A04724
:1047300010B1C0B270BD00BF28892B6940F21915B5
:10474000C2F200052946042298470028F1D12868C2
:1047500000BA30600020C0B270BD000070B540F2F9
:1047600019130546C2F2000348BA18802889EC687C
:10477000164619460222A04710B1C0B270BD00BF54
:1047800028892B6940F21915C2F200052946022238
:1047900098470028F1D1288800BA000C308000200A
:1047A000C0B270BD10B582B00C46014600286FF053
:1047B000010018BF002C01D102B010BD0020206004
:1047C0000DF10602084640F20F11FFF7C7FF00285F
:1047D000F2D1BDF806002060002002B010BD00003C
:1047E00000286FF0010218BF002901D11046704760
:1047F00080B5D1E90023D1E903CE026043600B8983
:1048000049690381C0E903CE4161BDE880400AB136
:10481000104700BF4FF0FF32104670472DE9F043BC
:1048200081B00DF10202E5218146FFF759FF9DF8A5
:1048300002100546032918D000270DF1020600BF1B
:10484000F8087C2810D848460121013700F0EAF921
:104850004846E5213246FFF743FF9DF80210054325
:104860000329EDD101E000BFFF254846012100F0FA
:10487000D9F945F2FC074FF0FF36C0F6000700BF3C
:10488000B819427806F12E0081B2484600F0D8F9F6
:1048900001365A2E45EA0005F2D1484687214022CA
:1048A00000F0CEF940EA050700250DF1030800BF2E
:1048B000484630214246FFF713FF9DF80310064695
:1048C000C1F300144846312142468DF80340FFF7FA
:1048D00007FF9DF8031046EA070201F0010161405D
:1048E000012942EA00078DF802100AD0E8087C2866
:1048F00006D848460121013500F094F9D8E700BFF9
:10490000FF274846012100F08DF948468621012203
:1049100000F096F940EA070448468721002200F09B
:104920008FF9044348460821092200F089F904431D
:1049300048460B21002200F083F904434846242115
:104940004FF4A06200F0AAF9044348463221002245
:1049500000F03EF82043C0B201B0BDE8F083000093
:10496000B0B5002804BF6FF00100B0BDCDB229463C
:10497000044600F025F800281CBF4FF0FF30B0BD02
:1049800020462581FFF74AFF0020B0BDF0B581B079
:1049900014460D4646211A46064600F051F90746D0
:1049A00030467221224600F079F940EA0704304689
:1049B00074212A4600F072F9204301B0F0BD0000D6
:1049C0004A08012100F03CB96FF003007047000075
:1049D0002DE9F04182B015460E4601AA0621804617
:1049E000FFF7BCFEBDF80410002941D04FF0804213
:1049F000B2FBF1F14FF47A7201EBC10106FB02F454
:104A00000902A6F1C90212F1BF0F4FEA911733D381
:104A100090BBCDB3B54233D90DF106024046DE213D
:104A2000FFF79CFE00EE105ABDF80610B8EE400AE3
:104A30009FED4E1A6FF39F2120EE010A01EE101A2E
:104A40000546B8EE411AADF8061020EE010A4046C0
:104A5000BCEEC00A6C2110EE102A00F005F90543E7
:104A600041F2CC00201A4408FE2D09D016E000BF08
:104A700040F0FE000024002740F0FE05FE2D0DD181
:104A8000FE2002B0BDE8F08140466C21002200F01B
:104A9000EBF80546A4F6C414FE2DF1D0240304EB74
:104AA000D700B908B0FBF1F0411E0020B1F5807FBE
:104AB0001DD300BFB1F5007F0CD3B1F5806F0DD3CE
:104AC000B1F5006F0ED30A090430B1F5805F1146CD
:104AD000F0D20AE04A0840F0010006E08A0840F0FF
:104AE000020002E0CA0840F0030000021146084339
:104AF00082B240465E2100F0D1F807EB47018A0000
:104B000004EBD212C1F3191140EA0504B2FBF1F132
:104B100000200139B1F5807F1DD300BFB1F5007FC2
:104B20000CD3B1F5806F0DD3B1F5006F0ED30A0928
:104B30000430B1F5805F1146F0D20AE04A0840F037
:104B4000010006E08A0840F0020002E0CA0840F0D6
:104B5000030000021146084382B24046612100F082
:104B60009DF8204302B0BDE8F08100BF3D0A873FB9
:104B7000B0B5C8B104460D4600F028F800281CBFA7
:104B80004FF0FF30B0BD681E01210328617609D8BF
:104B9000DFE800F0020E121840F2011060830020DE
:104BA000B0BD00BF002060766FF00100B0BD00BF57
:104BB000012060830020B0BD4FF48070608300202E
:104BC000B0BD00BF00206083B0BD0000B0B582B0B2
:104BD00001AA6C210446FFF79DFD0546019840227D
:104BE000002808BF21222046872100F029F8284309
:104BF00002B0B0BD10B5002804BF6FF0010010BDB9
:104C00000446407E18B1204600F008F810B14FF07D
:104C1000FF3010BD0020607610BD0000872100220B
:104C200000F00EB870B5044640690D468047064650
:104C300060698047801BA842FAD3002070BD000045
:104C400080B540F219134FEA112CC2F2000383F829
:104C500000C059709A700189D0F80CC008461946F6
:104C60000322E047C0B280BD80B540F21913C2F202
:104C700000034FEA112C5970110E9970110CD97064
:104C8000110A83F800C019715A710189D0F80CC05B
:104C9000084619460622E047C0B280BD80B540F202
:104CA0001913C2F200034FEA112C5970110A83F84C
:104CB00000C09970DA700189D0F80CC00846194616
:104CC0000422E047C0B280BD80B582B040F2181126
:104CD000C2F20001097840F21C22C2F200029423C1
:104CE00011FB0322019001A9104601224FF47A73AF
:104CF000FEF7D8F9019802B080BD0000FCF77AF900
:104D0000FEF7ECFEFEF7D2FCFEF726FDFEF736FDC1
:104D1000FEF76EFDFCE700000FB4054B10B503A9CC
:104D2000044A029800F018F810BC5DF814FB00006B
:104D3000C94C00080000002002E008C8121F08C18A
:104D4000002AFAD170477047002001E001C1121F0C
:104D5000002AFBD1704700002DE9FF4F8BB0884639
:104D60000546002606E025280BD0DDE90D12904708
:104D70006D1C761C28780028F5D10FB03046BDE8B0
:104D8000F08F0024A146A2460122AE4900E0044370
:104D900015F8013F203B02FA03F00842F7D12878CA
:104DA0002A2810D06FF02F022878A0F130010929AD
:104DB00015D809EB890102EB410144F0020400EB34
:104DC00001096D1CF0E758F8041B5FEA010903D5DF
:104DD00044F40054C9F1000944F002046D1C287821
:104DE0002E2817D115F8010F44F004042A280ED0FC
:104DF0006FF02F022878A0F1300109290AD80AEBB8
:104E00008A0102EB410100EB010A6D1CF2E758F840
:104E100004AB6D1C28786C280FD006DC4C2817D00A
:104E200068280DD06A2814D104E0742810D07A289C
:104E30000FD10DE044F400140AE044F4801401E0C2
:104E400044F440146978814202D104F580146D1C49
:104E50006D1C2878692865D006DC00288DD0632871
:104E600027D0642806D15DE06E2808D073282AD0A8
:104E7000752877D0DDE90D129047761CE0E0C4F389
:104E80000250022809D003280DD0D8F800100428B9
:104E90000DD00E6008F10408D2E0D8F80010F21727
:104EA000C1E90062F6E7D8F800100E80F2E70E7054
:104EB000F0E718F8041B8DF8001000208DF80100B1
:104EC000EB46012003E058F804BB4FF0FF306107C8
:104ED0004FF0000701D40AE07F1C57450DDA8742E6
:104EE000FADB1BF807100029F6D106E07F1C874289
:104EF000FCDB1BF807100029F8D1DDE90D23A9EB35
:104F000007008146214600F0B1F83044C61904E09C
:104F1000DDE90D121BF8010B90477F1EF8D22146E8
:104F2000484688E058F8040BC4F302514FF00A0BCE
:104F3000032900D100B2042900D140B2002802DACE
:104F400040422D2102E0210505D52B218DF82410AA
:104F5000012104E006E0E10710D02021F6E708AFC8
:104F6000089113E058F8040BC4F302514FF00A0BF8
:104F7000032900D180B2042900D1C0B20021EEE79C
:104F80005946FBF7CAF9303107F8011D0028F7D15F
:104F9000ADEB070000F1200B600702D524F480344C
:104FA00001E04FF0010ADA4502DDAAEB0B0000E058
:104FB0000020824600EB0B0108980144A9EB010098
:104FC0000A90E00306D4DDE90D2321460A9800F09B
:104FD0004DF806444FF0000908E009A911F809004E
:104FE000DDE90D12904709F10109761C0899894500
:104FF000F3DBE0030CD5DDE90D2321460A9800F030
:1050000035F8064404E0DDE90D1230209047761CA7
:10501000BAF10001AAF1010AF5DC05E0DDE90D12A3
:1050200017F8010B9047761CBBF10001ABF1010BA7
:10503000F4DC0A982146DDE90D2300F005F806446A
:105040006D1C97E6092801002DE9F0410446002572
:105050001E461746880404D405E039462020B04790
:105060006D1C641EF9D52846BDE8F0812DE9F0419C
:10507000044600251E469046C80301D5302700E0AF
:105080002027880404D505E041463846B0476D1C0A
:10509000641EF9D52846BDE8F08100000149FFF7FC
:1050A00013BE00000000002010B5044601E0FFF729
:1050B0000BFE14F8010B04490028F8D1BDE810409C
:1050C0000A20FFF701BE00000000002000000000E1
:1050D00000000000010203040607080900000000A8
:1050E00001020304010002000400060008000A0097
:1050F0000C001000200040008000000100000011A2
:1051000002000208000810010100000000FF000F6B
:105110000000000000200B00000214210000050028
:10512000000000C8000038FF010008000001CC07A3
:1051300001F10500A000800838000000000F890080
:105140000000000000000107050606000002C7FF7E
:105150009B0000000100000101010307010000089D
:105160000402040801010100885100080000002029
:1051700050000000384D0008D851000850000020B1
:1051800068420000484D00080000000001000000D7
:1051900010000000003801400090D003B146000824
:1051A0009D440008A5470008DD4400083D44000870
:1051B00095440008F5430008FD440008714B0008C1
:1051C000F54B000861490008C5440008C9490008BA
:0851D000E945000800000000A1
:040000050800025994
:00000001FF
